:020000040800F2
:1000000000000120790A0008C90A0008C90A00088E
:10001000C90A0008C90A0008C90A0008000000004F
:10002000000000000000000000000000C90A0008F5
:10003000C90A000800000000C90A0008C90A00082F
:1000400000000000C90A0008C90A0008C90A00081F
:10005000C90A0008C90A0008C90A0008C90A000834
:10006000C90A0008C90A0008C90A000800000000FF
:100070000000000000000000000000000000000080
:100080000000000000000000C90A00080000000095
:10009000000000000000000000000000C90A000885
:1000A000C90A0008C90A0008C90A0008C90A0008E4
:1000B000C90A0008C90A0008C90A0008C90A0008D4
:1000C000C90A0008C90A0008C90A0008C90A0008C4
:1000D000C90A0008C90A0008C90A0008000000008F
:1000E000C90A0008C90A0008C90A0008000000007F
:1000F0000000000000000000000000000000000000
:1001000000000000C90A0008C90A0008C90A00085E
:1001100000000000000000000000000000000000DF
:1001200000000000000000000000000000000000CF
:1001300000000000000000000000000000000000BF
:10014000000000000000000000000000C90A0008D4
:10015000000000000000000000000000C90A0008C4
:10016000C90A0008C90A00080000000000000000D9
:10017000000000000000000000000000000000007F
:1001800000000000C90A0008000000000000000094
:04019000C90A000890
:1001940010B5054C237833B9044B13B10448AFF3BD
:1001A40000800123237010BD000000200000000027
:1001B400140B000808B5034B1BB103490348AFF304
:1001C400008008BD0000000004000020140B00089B
:1001D400034613F8012B002AFBD1181A0138704783
:1001E40080B483B000AF78600B46FB70FB78012BC2
:1001F40036D17B68384A934206D1384B1B6B374A59
:1002040043F00103136361E07B68354A934206D1EE
:10021400324B1B6B314A43F00203136356E07B6895
:10022400304A934206D12D4B1B6B2C4A43F00403F6
:1002340013634BE07B682C4A934206D1274B1B6B1C
:10024400264A43F00803136340E07B68274A93423D
:100254003CD1224B1B6B214A43F01003136335E05E
:100264007B681D4A934206D11C4B1B6B1B4A23F02F
:10027400010313632AE07B68194A934206D1174BA2
:100284001B6B164A23F0020313631FE07B68154AB5
:10029400934206D1114B1B6B104A23F004031363E2
:1002A40014E07B68104A934206D10C4B1B6B0B4A3B
:1002B40023F00803136309E07B680C4A934205D1D9
:1002C400064B1B6B054A23F01003136300BF0C3766
:1002D400BD465DF8047B70470000024000380240D0
:1002E4000004024000080240000C024000100240DA
:1002F40080B483B000AF78607B68114A934201D127
:10030400002317E07B680F4A934201D1012311E0D7
:100314007B680D4A934201D102230BE07B680B4AB0
:10032400934201D1032305E07B68094A934201D13A
:100334000423FFE718460C37BD465DF8047B70477D
:10034400000002400004024000080240000C024089
:100354000010024080B584B000AF78600023FB60D9
:100364007B681B6801211846FFF73AFF7B685B79BD
:10037400032B24D87B685B791A467B681B795B0066
:1003840002FA03F31A46FB681343FB607B681B689D
:100394001A687B681B79194603238B40DB43194693
:1003A4007B681B680A401A607B681B6819687B6855
:1003B4001B68FA680A431A600023FB6093E07B68B9
:1003C4005B79042B17D1924BDB687A68127911465A
:1003D40001228A40D24311468D4A0B40D3608C4B94
:1003E400DB687A681279114601228A401146884AEC
:1003F4000B43D3604CE07B685B79052B17D1844BAE
:100404009B687A681279114601228A40D2431146C8
:100414007F4A0B4093607E4B9B687A681279114641
:1004240001228A4011467A4A0B43936030E07B688C
:100434005B79062B2CD1764BDB687A6812791146EE
:1004440001228A40D2431146714A0B40D360704B5B
:10045400DB687A681279114601228A4011466C4A97
:100464000B43D3606A4BDB687A6812791146012228
:100474008A401146664A0B43D360654B9B687A6891
:100484001279114601228A401146614A0B43936056
:100494007B681B799B08FB727B681B7903F0030361
:1004A400BB727B681B681846FFF722FF03461A4697
:1004B400BB7A9B0002FA03F1564AFB7A023352F8E4
:1004C400232008465349FB7A0243023341F8232090
:1004D4004F4B1B687A681279114601228A401146F3
:1004E4004B4A0B4313607B689B791A467B681B79E4
:1004F4005B0002FA03F31A46FB681343FB607B6854
:100504001B689A687B681B79194603238B40DB437D
:1005140019467B681B680A409A607B681B68996867
:100524007B681B68FA680A439A600023FB607B6857
:10053400DB791A467B681B795B0002FA03F31A46DF
:10054400FB681343FB607B681B68DA687B681B7974
:10055400194603238B40DB4319467B681B680A401A
:10056400DA607B681B68D9687B681B68FA680A4391
:10057400DA600023FB607B681B7A1A467B681B7970
:100584005B0002FA03F31A46FB681343FB607B68C3
:100594001B685A697B681B79194603238B40DB432C
:1005A40019467B681B680A405A617B681B68596955
:1005B4007B681B68FA680A435A610023FB607B6806
:1005C4005B79022B49D17B681B79072B24D87B6884
:1005D4001B681A6A7B681B799B000F2101FA03F3DD
:1005E400DB4319467B681B680A401A627B681B68F8
:1005F4001A6A7B685B7A19467B681B799B0001FA4F
:1006040003F319467B681B680A431A6225E000BF9E
:10061400003C0140003801407B681B685A6A7B68D3
:100624001B79083B9B000F2101FA03F3DB431946B6
:100634007B681B680A405A627B681B685A6A7B683D
:100644005B7A19467B681B79083B9B0001FA03F32C
:1006540019467B681B680A435A6200BF1037BD46BF
:1006640080BD00BF80B483B000AF78600B46FB70E0
:100674001346BB70BB78012B09D17B685B69FA78A0
:10068400012101FA02F21A437B685A6109E07B688E
:100694005B69FA78012101FA02F2D2431A407B68BD
:1006A4005A6100BF0C37BD465DF8047B70470000FB
:1006B40080B483B000AF78600B46FB70FB78012BED
:1006C4002BD17B682D4A934206D12D4B5B6C2C4A6F
:1006D40043F4805353644BE07B682A4A934206D127
:1006E400274B1B6C264A43F48043136440E07B6829
:1006F400254A934206D1224B1B6C214A43F4004302
:10070400136435E07B68214A934231D11C4B5B6C06
:100714001B4A43F4005353642AE07B68174A93420C
:1007240006D1174B5B6C164A23F4805353641FE0C5
:100734007B68144A934206D1114B1B6C104A23F474
:100744008043136414E07B680F4A934206D10C4B38
:100754001B6C0B4A23F40043136409E07B680B4AC7
:10076400934205D1064B5B6C054A23F40053536452
:1007740000BF0C37BD465DF8047B70470030014074
:100784000038024000380040003C00400034014082
:1007940080B584B000AF78607B681B68012118467F
:1007A400FFF786FF0023FB607B681B79012B06D1D2
:1007B4007B681B799B001A46FB681343FB607B68CC
:1007C4005B79002B04D1FB6823F40043FB6018E041
:1007D4007B685B79012B04D1FB6843F40043FB6025
:1007E4000FE07B685B79022B0BD1FB6823F4004399
:1007F400FB607B681B79012B03D1FB6843F48063A6
:10080400FB607B689B79DB001A46FB681343FB6043
:100814007B68DB79DB021A46FB681343FB607B6869
:100824001B7A5B001A46FB681343FB607B685B7AA8
:100834001A46FB681343FB607B681B68FA681A60FE
:100844007B681B681A687B681B6842F040021A6068
:1008540000BF1037BD4680BD80B483B000AF786060
:100864007B689B6803F00203002B01D0012300E0A6
:10087400002318460C37BD465DF8047B704780B5ED
:1008840084B000AFF860B9607A6023E000BFF86814
:10089400FFF7E2FF0346002BF9D0FB681B6803F463
:1008A4000063002B0BD0BB681B881A46FB68DA6018
:1008B400BB680233BB607B68023B7B600AE0BB68B9
:1008C4001B781A46FB68DA60BB680133BB607B683F
:1008D400013B7B607B68002BD8D100BF00BF103781
:1008E400BD4680BD80B483B000AF78600B46FB701A
:1008F400FB78012B06D17B681B6843F040027B68C0
:100904001A6005E07B681B6823F040027B681A606C
:1009140000BF0C37BD465DF8047B704780B483B0DC
:1009240000AF78600B46FB70FB78012B06D17B6827
:100934005B6843F004027B685A6005E07B685B688F
:1009440023F004027B685A6000BF0C37BD465DF893
:10095400047B704780B483B000AF00237B6002E067
:100964007B6801337B607B68044A9342F8D900BFFB
:1009740000BF0C37BD465DF8047B70471FA107001C
:1009840080B584B000AF144B7B6002237B720523D7
:100994007B7300233B730023FB720223BB720D2382
:1009A4003B723B1D1846FFF7D5FC0F233B723B1DE2
:1009B4001846FFF7CFFC0E233B723B1D1846FFF78A
:1009C400C9FC0C233B723B1D1846FFF7C3FC00BF58
:1009D4001037BD4680BD00BF0004024080B58AB018
:1009E40000AF0E4B7B6000237B7201233B7200231C
:1009F400BB720023FB7200233B7300237B73002331
:100A0400BB733B1D1846FFF7C3FE01210348FFF7E4
:100A140085FF00BF2837BD4680BD00BF00380040B9
:100A240080B582B000AF104B7B60FFF7A9FFFFF7E2
:100A3400D5FF01210D48FFF755FF01220C210C4879
:100A4400FFF710FE3B1D1846FFF7C2FB02463B1D95
:100A540019460648FFF713FF00220C210448FFF74C
:100A640001FEFFF777FFE8E74855590000380040DA
:100A7400000402400D488546AFF300800C480D4940
:100A84000D4A002302E0D458C4500433C4188C42E5
:100A9400F9D30A4A0A4C002301E013600432A2424B
:100AA400FBD300F011F8FFF7BBFFFEE700000120C5
:100AB4000000002000000020340B0008000000208B
:100AC4001C000020FEE7000070B50D4D0D4C641BAA
:100AD400A4100026A64209D10B4D0C4C00F018F8C6
:100AE400641BA4100026A64205D170BD55F8043B32
:100AF40098470136EEE755F8043B98470136F2E78C
:100B04002C0B00082C0B00082C0B0008300B0008E1
:100B1400F8B500BFF8BC08BC9E467047F8B500BFE6
:080B2400F8BC08BC9E467047B6
:040B2C00B901000803
:040B30009501000823
:0400000508000A796C
:00000001FF
