:020000040800F2
:1000000000000120C10D0008110E0008110E0008AB
:10001000110E0008110E0008110E0008000000006B
:10002000000000000000000000000000110E0008A9
:10003000110E000800000000110E0008110E00084B
:1000400000000000110E0008110E0008110E00083B
:10005000110E0008110E0008110E0008110E000804
:10006000110E0008110E0008110E0008000000001B
:100070000000000000000000000000000000000080
:100080000000000000000000110E00080000000049
:10009000000000000000000000000000110E000839
:1000A000110E0008110E0008110E0008110E0008B4
:1000B000110E0008110E0008110E0008110E0008A4
:1000C000110E0008110E0008110E0008110E000894
:1000D000AD0D0008110E0008110E00080000000010
:1000E000110E0008110E0008110E0008000000009B
:1000F0000000000000000000000000000000000000
:1001000000000000110E0008110E0008110E00087A
:1001100000000000000000000000000000000000DF
:1001200000000000000000000000000000000000CF
:1001300000000000000000000000000000000000BF
:10014000000000000000000000000000110E000888
:10015000000000000000000000000000110E000878
:10016000110E0008110E0008000000000000000041
:10017000000000000000000000000000000000007F
:1001800000000000110E0008000000000000000048
:04019000110E000844
:1001940010B5054C237833B9044B13B10448AFF3BD
:1001A40000800123237010BD000000200000000027
:1001B4005C0E000808B5034B1BB103490348AFF3B9
:1001C400008008BD00000000040000205C0E000850
:1001D400034613F8012B002AFBD1181A0138704783
:1001E40080B483B000AF78600B46FB70FB78012BC2
:1001F40036D17B68384A934206D1384B1B6B374A59
:1002040043F00103136361E07B68354A934206D1EE
:10021400324B1B6B314A43F00203136356E07B6895
:10022400304A934206D12D4B1B6B2C4A43F00403F6
:1002340013634BE07B682C4A934206D1274B1B6B1C
:10024400264A43F00803136340E07B68274A93423D
:100254003CD1224B1B6B214A43F01003136335E05E
:100264007B681D4A934206D11C4B1B6B1B4A23F02F
:10027400010313632AE07B68194A934206D1174BA2
:100284001B6B164A23F0020313631FE07B68154AB5
:10029400934206D1114B1B6B104A23F004031363E2
:1002A40014E07B68104A934206D10C4B1B6B0B4A3B
:1002B40023F00803136309E07B680C4A934205D1D9
:1002C400064B1B6B054A23F01003136300BF0C3766
:1002D400BD465DF8047B70470000024000380240D0
:1002E4000004024000080240000C024000100240DA
:1002F40080B483B000AF78607B68114A934201D127
:10030400002317E07B680F4A934201D1012311E0D7
:100314007B680D4A934201D102230BE07B680B4AB0
:10032400934201D1032305E07B68094A934201D13A
:100334000423FFE718460C37BD465DF8047B70477D
:10034400000002400004024000080240000C024089
:100354000010024080B584B000AF78600023FB60D9
:100364007B681B6801211846FFF73AFF7B685B79BD
:10037400032B24D87B685B791A467B681B795B0066
:1003840002FA03F31A46FB681343FB607B681B689D
:100394001A687B681B79194603238B40DB43194693
:1003A4007B681B680A401A607B681B6819687B6855
:1003B4001B68FA680A431A600023FB6093E07B68B9
:1003C4005B79042B17D1924BDB687A68127911465A
:1003D40001228A40D24311468D4A0B40D3608C4B94
:1003E400DB687A681279114601228A401146884AEC
:1003F4000B43D3604CE07B685B79052B17D1844BAE
:100404009B687A681279114601228A40D2431146C8
:100414007F4A0B4093607E4B9B687A681279114641
:1004240001228A4011467A4A0B43936030E07B688C
:100434005B79062B2CD1764BDB687A6812791146EE
:1004440001228A40D2431146714A0B40D360704B5B
:10045400DB687A681279114601228A4011466C4A97
:100464000B43D3606A4BDB687A6812791146012228
:100474008A401146664A0B43D360654B9B687A6891
:100484001279114601228A401146614A0B43936056
:100494007B681B799B08FB727B681B7903F0030361
:1004A400BB727B681B681846FFF722FF03461A4697
:1004B400BB7A9B0002FA03F1564AFB7A023352F8E4
:1004C400232008465349FB7A0243023341F8232090
:1004D4004F4B1B687A681279114601228A401146F3
:1004E4004B4A0B4313607B689B791A467B681B79E4
:1004F4005B0002FA03F31A46FB681343FB607B6854
:100504001B689A687B681B79194603238B40DB437D
:1005140019467B681B680A409A607B681B68996867
:100524007B681B68FA680A439A600023FB607B6857
:10053400DB791A467B681B795B0002FA03F31A46DF
:10054400FB681343FB607B681B68DA687B681B7974
:10055400194603238B40DB4319467B681B680A401A
:10056400DA607B681B68D9687B681B68FA680A4391
:10057400DA600023FB607B681B7A1A467B681B7970
:100584005B0002FA03F31A46FB681343FB607B68C3
:100594001B685A697B681B79194603238B40DB432C
:1005A40019467B681B680A405A617B681B68596955
:1005B4007B681B68FA680A435A610023FB607B6806
:1005C4005B79022B49D17B681B79072B24D87B6884
:1005D4001B681A6A7B681B799B000F2101FA03F3DD
:1005E400DB4319467B681B680A401A627B681B68F8
:1005F4001A6A7B685B7A19467B681B799B0001FA4F
:1006040003F319467B681B680A431A6225E000BF9E
:10061400003C0140003801407B681B685A6A7B68D3
:100624001B79083B9B000F2101FA03F3DB431946B6
:100634007B681B680A405A627B681B685A6A7B683D
:100644005B7A19467B681B79083B9B0001FA03F32C
:1006540019467B681B680A435A6200BF1037BD46BF
:1006640080BD00BF80B483B000AF78600B46FB70E0
:100674001346BB70BB78012B09D17B685B69FA78A0
:10068400012101FA02F21A437B685A6109E07B688E
:100694005B69FA78012101FA02F2D2431A407B68BD
:1006A4005A6100BF0C37BD465DF8047B70470000FB
:1006B40080B483B000AF78600B46FB70FB78012BED
:1006C4002BD17B682D4A934206D12D4B5B6C2C4A6F
:1006D40043F4805353644BE07B682A4A934206D127
:1006E400274B1B6C264A43F48043136440E07B6829
:1006F400254A934206D1224B1B6C214A43F4004302
:10070400136435E07B68214A934231D11C4B5B6C06
:100714001B4A43F4005353642AE07B68174A93420C
:1007240006D1174B5B6C164A23F4805353641FE0C5
:100734007B68144A934206D1114B1B6C104A23F474
:100744008043136414E07B680F4A934206D10C4B38
:100754001B6C0B4A23F40043136409E07B680B4AC7
:10076400934205D1064B5B6C054A23F40053536452
:1007740000BF0C37BD465DF8047B70470030014074
:100784000038024000380040003C00400034014082
:1007940080B584B000AF78607B681B68012118467F
:1007A400FFF786FF0023FB607B681B79012B06D1D2
:1007B4007B681B799B001A46FB681343FB607B68CC
:1007C4005B79002B04D1FB6823F40043FB6018E041
:1007D4007B685B79012B04D1FB6843F40043FB6025
:1007E4000FE07B685B79022B0BD1FB6823F4004399
:1007F400FB607B681B79012B03D1FB6843F48063A6
:10080400FB607B689B79DB001A46FB681343FB6043
:100814007B68DB79DB021A46FB681343FB607B6869
:100824001B7A5B001A46FB681343FB607B685B7AA8
:100834001A46FB681343FB607B681B68FA681A60FE
:100844007B681B681A687B681B6842F040021A6068
:1008540000BF1037BD4680BD80B487B000AFF860DC
:10086400B9607A60FB68DB69FB75FB7D022B10D0F5
:10087400FB68BA68DA60FB687A685A61FB6802222E
:10088400DA61FB681B685A68FB681B6842F08002E7
:100894005A60FB7D18461C37BD465DF8047B7047E3
:1008A40080B483B000AF03460A46FB711346BB71A4
:1008B400BB79012B33D1FB791F2B0AD8354B1B682D
:1008C400FA79012101FA02F21146324A0B4313600C
:1008D40059E0FB791F2B0FD9FB793F2B0CD82E4BFA
:1008E4001B68FA7902F01F02012101FA02F2114693
:1008F400294A0B43136046E0FB793F2B43D9FB792C
:100904005F2B40D8254B1B68FA7902F03F02012186
:1009140001FA02F21146214A0B43136033E0FB79DA
:100924001F2B0AD81E4B1B68FA79012101FA02F227
:1009340011461B4A0B43136025E0FB791F2B0FD98B
:10094400FB793F2B0CD8174B1B68FA7902F01F0276
:10095400012101FA02F21146124A0B43136012E01C
:10096400FB793F2B0FD9FB795F2B0CD80E4B1B68FF
:10097400FA7902F03F02012101FA02F211460A4A11
:100984000B431360FFE700BF0C37BD465DF8047BE3
:10099400704700BF00E100E004E100E008E100E08E
:1009A40080E100E084E100E088E100E080B584B00B
:1009B40000AF78607B681B689B68DBB203F00203BE
:1009C400FB737B681B685B68DBB223F07F03BB733C
:1009D400FB7B002B05D0BB7B002B02D0786800F09A
:1009E400A0F87B681B689B68DBB203F00103FB7310
:1009F4007B681B685B68DBB203F04003BB73FB7B63
:100A0400002B05D0BB7B002B02D0786800F0C4F823
:100A14007B681B689B68DBB203F04003FB737B6855
:100A24001B685B68DBB203F02003BB73FB7B002B0A
:100A340005D0BB7B002B02D0786800F0EAF800BF39
:100A44001037BD4680BD80B483B000AF78600B46DC
:100A5400FB70FB78012B06D17B681B6843F04002D6
:100A64007B681A6005E07B681B6823F040027B68A2
:100A74001A6000BF0C37BD465DF8047B704780B434
:100A840083B000AF78600B46FB70FB78012B06D176
:100A94007B685B6843F004027B685A6005E07B680E
:100AA4005B6823F004027B685A6000BF0C37BD46C4
:100AB4005DF8047B704780B483B000AF78607B68D6
:100AC4001B685A687B681B6822F080025A607B6846
:100AD4000022DA607B6800225A617B680022DA61B6
:100AE40000BF0C37BD465DF8047B704780B483B00B
:100AF40000AF78607B681B685A687B681B6822F0CB
:100B040040025A607B6800221A617B6800229A6165
:100B14007B6800221A6200BF0C37BD465DF8047B77
:100B2400704780B582B000AF78607B681B681B6833
:100B340003F40063002B10D07B68DB681A887B68A1
:100B44001B68DA607B68DB689A1C7B68DA607B6808
:100B54005B699A1E7B685A610FE07B68DB681A78D0
:100B64007B681B68DA607B68DB685A1C7B68DA6028
:100B74007B685B695A1E7B685A617B685B69002BE2
:100B840006D17868FFF797FF0121786800F059F8DB
:100B940000BF0837BD4680BD80B582B000AF786025
:100BA4007B681B681B6803F40063002B11D07B680F
:100BB4001B68DA687B681B6992B21A807B681B69C0
:100BC4009A1C7B681A617B689B699A1E7B689A6190
:100BD40010E07B681B68DA687B681B69D2B21A7004
:100BE4007B681B695A1C7B681A617B689B695A1E67
:100BF4007B689A617B689B69002B06D17868FFF754
:100C040075FF0221786800F01CF800BF0837BD4664
:100C140080BD80B584B000AF78607B68DB69022B4F
:100C240007D07B681B68DB68FB737B681B689B6869
:100C3400FB730321786800F004F800BF1037BD4649
:100C440080BD80B483B000AF78600B46FB7000BFFA
:100C54000C37BD465DF8047B7047000080B483B058
:100C640000AF00237B6002E07B6801337B607B681C
:100C7400044A9342F8D900BF00BF0C37BD465DF863
:100C8400047B70471FA1070080B584B000AF144BEC
:100C94007B6002237B7205237B7300233B73002359
:100CA400FB720223BB720D233B723B1D1846FFF7F8
:100CB40051FB0F233B723B1D1846FFF74BFB0E23E2
:100CC4003B723B1D1846FFF745FB0C233B723B1D53
:100CD4001846FFF73FFB00BF1037BD4680BD00BF7D
:100CE4000004024080B500AF104B114A1A600F4B4C
:100CF40000225A710D4B01221A710C4B03229A7176
:100D04000A4B0022DA71094B00221A72074B0022A7
:100D14005A72064B00229A720448FFF739FD0121EA
:100D24000348FFF7ACFE00BF80BD00BF1C000020DD
:100D34000038004080B582B000AF174B7B60FFF7EE
:100D4400A3FFFFF7CFFF01211448FFF77CFE012129
:100D54002420FFF7A5FD01220C211148FFF782FC96
:100D6400104BDB69022B09D03B1D1846FFF730FA04
:100D740002463B1D19460B48FFF76EFD00BF094BA9
:100D8400DB69022BFBD000220C210548FFF76AFC2B
:100D9400FFF764FFDFE700BF485559000038004003
:100DA400000402401C00002080B500AF0248FFF799
:100DB400FDFD00BF80BD00BF1C0000200D4885461E
:100DC400AFF300800C480D490D4A002302E0D458CB
:100DD400C4500433C4188C42F9D30A4A0A4C002381
:100DE40001E013600432A242FBD300F011F8FFF7D4
:100DF400A1FFFEE700000120000000200000002009
:100E04007C0E00080000002040000020FEE70000E7
:100E140070B50D4D0D4C641BA4100026A64209D1DB
:100E24000B4D0C4C00F018F8641BA4100026A642CD
:100E340005D170BD55F8043B98470136EEE755F8E7
:100E4400043B98470136F2E7740E0008740E00085C
:100E5400740E0008780E0008F8B500BFF8BC08BC92
:100E64009E467047F8B500BFF8BC08BC9E46704764
:040E7400B9010008B8
:040E780095010008D8
:0400000508000DC121
:00000001FF
