:020000040800F2
:100000000000012075070008C5070008C5070008A3
:10001000C5070008C5070008C50700080000000064
:10002000000000000000000000000000C5070008FC
:10003000C507000800000000C5070008C507000844
:1000400000000000C5070008C5070008C507000834
:10005000C5070008C5070008C5070008C507000850
:10006000C5070008C5070008C50700080000000014
:100070000000000000000000000000000000000080
:100080000000000000000000C5070008000000009C
:10009000000000000000000000000000C50700088C
:1000A000C5070008C5070008C5070008C507000800
:1000B000C5070008C5070008C5070008C5070008F0
:1000C000C5070008C5070008C5070008C5070008E0
:1000D000C5070008C5070008C507000800000000A4
:1000E000C5070008C5070008C50700080000000094
:1000F0000000000000000000000000000000000000
:1001000000000000C5070008C5070008C507000873
:1001100000000000000000000000000000000000DF
:1001200000000000000000000000000000000000CF
:1001300000000000000000000000000000000000BF
:10014000000000000000000000000000C5070008DB
:10015000000000000000000000000000C5070008CB
:10016000C5070008C50700080000000000000000E7
:10017000000000000000000000000000000000007F
:1001800000000000C507000800000000000000009B
:04019000C507000897
:1001940010B5054C237833B9044B13B10448AFF3BD
:1001A40000800123237010BD000000200000000027
:1001B4001008000808B5034B1BB103490348AFF30B
:1001C400008008BD000000000400002010080008A2
:1001D40080B483B000AF78600B46FB70FB78012BD2
:1001E40036D17B68384A934206D1384B1B6B374A69
:1001F40043F00103136361E07B68354A934206D1FF
:10020400324B1B6B314A43F00203136356E07B68A5
:10021400304A934206D12D4B1B6B2C4A43F0040306
:1002240013634BE07B682C4A934206D1274B1B6B2C
:10023400264A43F00803136340E07B68274A93424D
:100244003CD1224B1B6B214A43F01003136335E06E
:100254007B681D4A934206D11C4B1B6B1B4A23F03F
:10026400010313632AE07B68194A934206D1174BB2
:100274001B6B164A23F0020313631FE07B68154AC5
:10028400934206D1114B1B6B104A23F004031363F2
:1002940014E07B68104A934206D10C4B1B6B0B4A4B
:1002A40023F00803136309E07B680C4A934205D1E9
:1002B400064B1B6B054A23F01003136300BF0C3776
:1002C400BD465DF8047B70470000024000380240E0
:1002D4000004024000080240000C024000100240EA
:1002E40080B483B000AF78607B68114A934201D137
:1002F400002317E07B680F4A934201D1012311E0E8
:100304007B680D4A934201D102230BE07B680B4AC0
:10031400934201D1032305E07B68094A934201D14A
:100324000423FFE718460C37BD465DF8047B70478D
:10033400000002400004024000080240000C024099
:100344000010024080B584B000AF78600023FB60E9
:100354007B681B6801211846FFF73AFF7B685B79CD
:10036400032B24D87B685B791A467B681B795B0076
:1003740002FA03F31A46FB681343FB607B681B68AD
:100384001A687B681B79194603238B40DB431946A3
:100394007B681B680A401A607B681B6819687B6865
:1003A4001B68FA680A431A600023FB6093E07B68C9
:1003B4005B79042B17D1924BDB687A68127911466A
:1003C40001228A40D24311468D4A0B40D3608C4BA4
:1003D400DB687A681279114601228A401146884AFC
:1003E4000B43D3604CE07B685B79052B17D1844BBE
:1003F4009B687A681279114601228A40D2431146D9
:100404007F4A0B4093607E4B9B687A681279114651
:1004140001228A4011467A4A0B43936030E07B689C
:100424005B79062B2CD1764BDB687A6812791146FE
:1004340001228A40D2431146714A0B40D360704B6B
:10044400DB687A681279114601228A4011466C4AA7
:100454000B43D3606A4BDB687A6812791146012238
:100464008A401146664A0B43D360654B9B687A68A1
:100474001279114601228A401146614A0B43936066
:100484007B681B799B08FB727B681B7903F0030371
:10049400BB727B681B681846FFF722FF03461A46A7
:1004A400BB7A9B0002FA03F1564AFB7A023352F8F4
:1004B400232008465349FB7A0243023341F82320A0
:1004C4004F4B1B687A681279114601228A40114603
:1004D4004B4A0B4313607B689B791A467B681B79F4
:1004E4005B0002FA03F31A46FB681343FB607B6864
:1004F4001B689A687B681B79194603238B40DB438E
:1005040019467B681B680A409A607B681B68996877
:100514007B681B68FA680A439A600023FB607B6867
:10052400DB791A467B681B795B0002FA03F31A46EF
:10053400FB681343FB607B681B68DA687B681B7984
:10054400194603238B40DB4319467B681B680A402A
:10055400DA607B681B68D9687B681B68FA680A43A1
:10056400DA600023FB607B681B7A1A467B681B7980
:100574005B0002FA03F31A46FB681343FB607B68D3
:100584001B685A697B681B79194603238B40DB433C
:1005940019467B681B680A405A617B681B68596965
:1005A4007B681B68FA680A435A610023FB607B6816
:1005B4005B79022B49D17B681B79072B24D87B6894
:1005C4001B681A6A7B681B799B000F2101FA03F3ED
:1005D400DB4319467B681B680A401A627B681B6808
:1005E4001A6A7B685B7A19467B681B799B0001FA5F
:1005F40003F319467B681B680A431A6225E000BFAF
:10060400003C0140003801407B681B685A6A7B68E3
:100614001B79083B9B000F2101FA03F3DB431946C6
:100624007B681B680A405A627B681B685A6A7B684D
:100634005B7A19467B681B79083B9B0001FA03F33C
:1006440019467B681B680A435A6200BF1037BD46CF
:1006540080BD00BF80B485B000AF78600B46FB70EE
:100664000023FB737B681A69FB7822FA03F3DBB27D
:1006740003F00103FB73FB7B18461437BD465DF89A
:10068400047B704780B483B000AF78600B46FB7086
:100694007B685B69FA78012101FA02F25A407B68AF
:1006A4005A6100BF0C37BD465DF8047B70470000FB
:1006B40080B483B000AF00237B6002E07B68013329
:1006C4007B607B68044A9342F8D900BF00BF0C37B3
:1006D400BD465DF8047B70471FA1070080B58AB052
:1006E40000AF224BFB61052387F82030012387F8F4
:1006F4002130022387F82230002387F82430002396
:1007040087F8233007F11C031846FFF71BFE174B2D
:100714003B6106233B7501237B750223BB750023D4
:100724003B760023FB7507F110031846FFF70AFE1A
:100734000E4B7B6008233B7200237B720123FB7208
:100744003B1D1846FFF7FEFD08210848FFF782FF0E
:100754000346002BF8D105210448FFF793FF062137
:100764000248FFF78FFFFFF7A3FFEDE70000024009
:100774000D488546AFF300800C480D490D4A00230F
:1007840002E0D458C4500433C4188C42F9D30A4A42
:100794000A4C002301E013600432A242FBD300F0B0
:1007A40011F8FFF79BFFFEE7000001200000002086
:1007B4000000002030080008000000201C00002079
:1007C400FEE7000070B50D4D0D4C641BA41000260F
:1007D400A64209D10B4D0C4C00F018F8641BA41070
:1007E4000026A64205D170BD55F8043B9847013652
:1007F400EEE755F8043B98470136F2E7280800086D
:1008040028080008280800082C080008F8B500BFCC
:10081400F8BC08BC9E467047F8B500BFF8BC08BCDD
:040824009E46704735
:04082800B90100080A
:04082C00950100082A
:040000050800077573
:00000001FF
